:020000040800F2
:10000000002800207D0C0008210C0008270C0008A7
:100010002D0C0008330C0008390C0008000000000B
:100020000000000000000000000000003F0C00087D
:100030004B0C000800000000570C0008630C00087F
:10004000C50C0008C50C0008C50C0008C50C00084C
:10005000C50C0008C50C0008C50C0008C50C00083C
:10006000C50C0008C50C0008C50C0008C50C00082C
:10007000C50C0008C50C0008C50C0008C50C00081C
:10008000C50C0008C50C0008C50C0008C50C00080C
:10009000C50C0008C50C0008C50C0008C50C0008FC
:1000A000C50C0008C50C0008C50C0008C50C0008EC
:1000B000C50C0008C50C000800000000C50C0008B5
:1000C000C50C00080000000000000000C50C00087E
:1000D00000000000C50C0008C50C0008000000006E
:1000E000C50C0008C50C0008C50C00080000000085
:1000F0000000000000000000000000000000000000
:0C01000000000000000000005FF808F1A3
:10010C0010B5054C237833B9044B13B10448AFF345
:10011C0000800123237010BD0C00002000000000A3
:10012C00E81A000808B5034B1BB103490348AFF3A9
:10013C00008008BD0000000010000020E81A000834
:10014C0080B582B000AF78607B68002B23D1002291
:10015C000121C04801F096F800220221BD4801F0AF
:10016C0091F800220421BB4801F08CF800220821F0
:10017C00B84801F087F800221021B64801F082F847
:10018C0000222021B34801F07DF801224021B14822
:10019C0001F078F883E17B68012B23D10122012146
:1001AC00AC4801F06FF800220221AA4801F06AF86D
:1001BC0000220421A74801F065F801220821A54876
:1001CC0001F060F801221021A24801F05BF8012235
:1001DC002021A04801F056F8012240219D4801F051
:1001EC0051F85CE17B68022B23D100220121994854
:1001FC0001F048F800220221964801F043F8012250
:10020C000421944801F03EF800220821914801F0A5
:10021C0039F8002210218F4801F034F801222021F6
:10022C008C4801F02FF8002240218A4801F02AF86E
:10023C0035E17B68032B23D100220121854801F095
:10024C0021F800220221834801F01CF8002204212D
:10025C00804801F017F8002208217E4801F012F8BE
:10026C00012210217B4801F00DF801222021794850
:10027C0001F008F800224021764801F003F80EE165
:10028C007B68042B23D101220121724800F0FAFF74
:10029C00002202216F4800F0F5FF002204216D4876
:1002AC0000F0F0FF012208216A4800F0EBFF012268
:1002BC001021684800F0E6FF00222021654800F07C
:1002CC00E1FF00224021634800F0DCFFE7E07B689F
:1002DC00052B23D1002201215E4800F0D3FF01221F
:1002EC0002215C4800F0CEFF00220421594800F0A6
:1002FC00C9FF00220821574800F0C4FF0122102139
:10030C00544800F0BFFF00222021524800F0BAFFF1
:10031C00002240214F4800F0B5FFC0E07B68062B5F
:10032C0023D1002201214B4800F0ACFF0122022115
:10033C00484800F0A7FF00220421464800F0A2FF25
:10034C0000220821434800F09DFF00221021414863
:10035C0000F098FF002220213E4800F093FF00227D
:10036C0040213C4800F08EFF99E07B68072B23D19D
:10037C0000220121374800F085FF00220221354878
:10038C0000F080FF00220421324800F07BFF0122A4
:10039C000821304800F076FF012210212D4800F092
:1003AC0071FF012220212B4800F06CFF012240211B
:1003BC00284800F067FF72E07B68082B23D10022ED
:1003CC000121244800F05EFF00220221214800F0A8
:1003DC0059FF002204211F4800F054FF002208217D
:1003EC001C4800F04FFF002210211A4800F04AFF71
:1003FC0000222021174800F045FF0022402115481B
:10040C0000F040FF4BE07B68092B25D10022012135
:10041C00104800F037FF002202210E4800F032FF96
:10042C00002204210B4800F02DFF0022082109486E
:10043C0000F028FF01221021064800F023FF0022C3
:10044C002021044800F01EFF00224021014800F04A
:10045C0019FF24E0000C014001220121124800F098
:10046C0011FF01220221104800F00CFF012204218F
:10047C000D4800F007FF012208210B4800F002FF95
:10048C0001221021084800F0FDFE0122202106481F
:10049C0000F0F8FE01224021034800F0F3FE00BFFB
:1004AC000837BD4680BD00BF000C014080B582B04E
:1004BC0000AF78607B68002B2AD100224FF40071CA
:1004CC00CB4800F0DFFE00224FF48061C84800F0FA
:1004DC00D9FE00224FF40061C54800F0D3FE002283
:1004EC004FF48051C24800F0CDFE00224FF4005171
:1004FC00BF4800F0C7FE00224FF48041BC4800F01A
:10050C00C1FE01224FF40041B94800F0BBFEC9E125
:10051C007B68012B2AD101224FF40071B44800F002
:10052C00B1FE00224FF48061B14800F0ABFE002216
:10053C004FF40061AE4800F0A5FE01224FF480514B
:10054C00AB4800F09FFE01224FF40051A84800F088
:10055C0099FE01224FF48041A54800F093FE012240
:10056C004FF40041A24800F08DFE9BE17B68022B0A
:10057C002AD100224FF400719D4800F083FE002226
:10058C004FF480619A4800F07DFE01224FF4006127
:10059C00974800F077FE00224FF48051944800F009
:1005AC0071FE00224FF40051914800F06BFE0122C5
:1005BC004FF480418E4800F065FE00224FF400415C
:1005CC008B4800F05FFE6DE17B68032B2AD1002283
:1005DC004FF40071864800F055FE00224FF4806104
:1005EC00834800F04FFE00224FF40061804800F079
:1005FC0049FE00224FF480517D4800F043FE012259
:10060C004FF400517A4800F03DFE01224FF4804136
:10061C00774800F037FE00224FF40041744800F098
:10062C0031FE3FE17B68042B2AD101224FF400718B
:10063C006F4800F027FE00224FF480616C4800F0F8
:10064C0021FE00224FF40061694800F01BFE0122DC
:10065C004FF48051664800F015FE01224FF4005112
:10066C00634800F00FFE00224FF48041604800F018
:10067C0009FE00224FF400415D4800F003FE11E139
:10068C007B68052B2AD100224FF40071584800F0EA
:10069C00F9FD01224FF48061554800F0F3FD002272
:1006AC004FF40061524800F0EDFD00224FF48051F0
:1006BC004F4800F0E7FD01224FF400514C4800F088
:1006CC00E1FD00224FF48041494800F0DBFD00229F
:1006DC004FF40041464800F0D5FDE3E07B68062B63
:1006EC002AD100224FF40071414800F0CBFD0122C9
:1006FC004FF480613E4800F0C5FD00224FF40061CC
:10070C003B4800F0BFFD00224FF48051384800F008
:10071C00B9FD00224FF40051354800F0B3FD002222
:10072C004FF48041324800F0ADFD00224FF40041FF
:10073C002F4800F0A7FDB5E07B68072B2AD10022DB
:10074C004FF400712A4800F09DFD00224FF48061A7
:10075C00274800F097FD00224FF40061244800F078
:10076C0091FD01224FF48051214800F08BFD0122B4
:10077C004FF400511E4800F085FD01224FF48041DA
:10078C001B4800F07FFD01224FF40041184800F097
:10079C0079FD87E07B68082B2CD100224FF4007187
:1007AC00134800F06FFD00224FF48061104800F0F8
:1007BC0069FD00224FF400610D4800F063FD00223A
:1007CC004FF480510A4800F05DFD00224FF40051B7
:1007DC00074800F057FD00224FF48041044800F018
:1007EC0051FD00224FF40041014800F04BFD59E04F
:1007FC00000801407B68092B2AD100224FF40071BC
:10080C002A4800F03FFD00224FF48061274800F099
:10081C0039FD00224FF40061244800F033FD002222
:10082C004FF48051214800F02DFD01224FF400516E
:10083C001E4800F027FD00224FF480411B4800F0B9
:10084C0021FD00224FF40041184800F01BFD29E067
:10085C0001224FF40071154800F014FD01224FF4F1
:10086C008061124800F00EFD01224FF400610F4828
:10087C0000F008FD01224FF480510C4800F002FDFD
:10088C0001224FF40051094800F0FCFC01224FF406
:10089C008041064800F0F6FC01224FF40041034869
:1008AC0000F0F0FC00BF0837BD4680BD00080140D9
:1008BC0080B588B000AF00F001FA00F0E3F800F06A
:1008CC001DF90A23FB610523BB6102237B61032312
:1008DC003B610523FB600223BB6003237B60FB6948
:1008EC00052B18DDFB690A2B15DC0022022164485C
:1008FC0000F0C8FC01220421614800F0C3FC012275
:10090C0008215F4800F0BEFCB869FFF719FCBB6911
:10091C00013BBB6136E0FB69022B18DDFB69052B43
:10092C0015DC01220221564800F0ACFC0122042106
:10093C00534800F0A7FC00220821514800F0A2FC0B
:10094C003869FFF7FDFB3B69013B3B611AE0FB6932
:10095C00002B17DDFB69022B14DC01220221484815
:10096C0000F090FC00220421454800F08BFC012291
:10097C000821434800F086FC7869FFF7E1FB7B69AE
:10098C00013B7B61FB69072B18DDFB690A2B15DC2E
:10099C00012210213A4800F075FC01222021384830
:1009AC0000F070FC00224021354800F06BFC7868A8
:1009BC00FFF77CFD7B68013B7B6036E0FB69052B18
:1009CC0018DDFB69072B15DC012210212C4800F0E7
:1009DC0059FC002220212A4800F054FC012240211D
:1009EC00274800F04FFCB868FFF760FDBB68013B7F
:1009FC00BB601AE0FB69002B17DDFB69052B14DCCF
:100A0C00002210211E4800F03DFC012220211C4830
:100A1C0000F038FC01224021194800F033FCF86842
:100A2C00FFF744FDFB68013BFB60BB69002B01D168
:100A3C000523BB617B69002B01D102237B613B69E0
:100A4C00002B01D103233B61FB68002B01D1052353
:100A5C00FB60BB68002B01D10223BB607B68002BC1
:100A6C0001D103237B60FB69013BFB61FB69002B1C
:100A7C0001D10A23FB614FF47A7000F081F92EE763
:100A8C000008014080B590B000AF07F11803282290
:100A9C000021184601F01AF83B1D00221A605A601A
:100AAC009A60DA601A610223BB610123BB621023D6
:100ABC00FB6200237B6307F11803184600F0FAFB76
:100ACC000346002B01D000F06DF80F237B60002350
:100ADC00BB600023FB6000233B6100237B613B1D5B
:100AEC000021184600F066FE0346002B01D000F0F2
:100AFC0059F800BF4037BD4680BD000080B586B0B8
:100B0C0000AF07F1080300221A605A609A60DA609D
:100B1C00214B9B69204A43F0040393611E4B9B6954
:100B2C0003F004037B607B681B4B9B691A4A43F000
:100B3C0008039361184B9B6903F008033B603B6807
:100B4C0000224FF67E61154800F09CFB00227F21AD
:100B5C00134800F097FB4FF67E63BB600123FB60EC
:100B6C0000233B6102237B6107F1080319460B4804
:100B7C0000F00EFA7F23BB600123FB6000233B6176
:100B8C0002237B6107F108031946054800F000FABF
:100B9C0000BF1837BD4680BD001002400008014060
:100BAC00000C014080B400AF72B600BFFEE700003D
:100BBC0080B485B000AF154B9B69144A43F0010318
:100BCC009361124B9B6903F00103BB60BB680F4B35
:100BDC00DB690E4A43F08053D3610C4BDB6903F0A5
:100BEC0080537B607B680A4B5B68FB60FB6823F07F
:100BFC00E063FB60FB6843F08063FB60044AFB68C6
:100C0C00536000BF1437BD4680BC704700100240D3
:100C1C000000014080B400AFFEE780B400AFFEE7F7
:100C2C0080B400AFFEE780B400AFFEE780B400AF45
:100C3C00FEE780B400AF00BFBD4680BC704780B4F7
:100C4C0000AF00BFBD4680BC704780B400AF00BF92
:100C5C00BD4680BC704780B500AF00F075F800BF92
:100C6C0080BD80B400AF00BFBD4680BC70470000A3
:100C7C000C480D490D4A002302E0D458C4500433EB
:100C8C00C4188C42F9D30A4A0A4C002301E01360C1
:100C9C000432A242FBD3FFF7E4FF00F0F3FEFFF7B0
:100CAC0007FE7047000000200C000020281B0008E5
:100CBC000C0000202C000020FEE7000080B500AFE7
:100CCC00084B1B68074A43F010031360032000F025
:100CDC002BF90F2000F008F8FFF76AFF00231846E5
:100CEC0080BD00BF0020024080B582B000AF7860AC
:100CFC00124B1A68124B1B7819464FF47A73B3FBDC
:100D0C00F1F3B2FBF3F3184600F035F90346002B70
:100D1C0001D001230EE07B680F2B0AD800227968E2
:100D2C004FF0FF3000F00BF9064A7B68136000238C
:100D3C0000E0012318460837BD4680BD00000020A6
:100D4C00080000200400002080B400AF054B1B7885
:100D5C001A46054B1B681344034A136000BFBD467B
:100D6C0080BC7047080000202800002080B400AF31
:100D7C00024B1B681846BD4680BC704728000020FB
:100D8C0080B584B000AF7860FFF7F0FFB8607B6887
:100D9C00FB60FB68B3F1FF3F05D00A4B1B781A468A
:100DAC00FB681344FB6000BFFFF7E0FF0246BB6823
:100DBC00D31AFA689A42F7D800BF00BF1037BD4665
:100DCC0080BD00BF0800002080B485B000AF786003
:100DDC007B6803F00703FB600C4BDB68BB60BA68F5
:100DEC004FF6FF031340BB60FB681A02BB6813434A
:100DFC0043F0BF6343F40033BB60044ABB68D36069
:100E0C0000BF1437BD4680BC704700BF00ED00E04A
:100E1C0080B400AF044BDB681B0A03F007031846D1
:100E2C00BD4680BC704700BF00ED00E080B483B0CD
:100E3C0000AF03463960FB7197F90730002B0ADBD2
:100E4C003B68DAB20C4997F907301201D2B20B4465
:100E5C0083F800230AE03B68DAB20849FB7903F017
:100E6C000F03043B1201D2B20B441A7600BF0C37AD
:100E7C00BD4680BC704700BF00E100E000ED00E023
:100E8C0080B489B000AFF860B9607A60FB6803F099
:100E9C000703FB61FB69C3F10703042B28BF042381
:100EAC00BB61FB690433062B02D9FB69033B00E0F1
:100EBC0000237B614FF0FF32BB6902FA03F3DA4384
:100ECC00BB681A407B699A404FF0FF317B6901FA8D
:100EDC0003F3D9437B680B40134318462437BD46B4
:100EEC0080BC704780B582B000AF78607B68013BF6
:100EFC00B3F1807F01D301230FE00A4A7B68013BE9
:100F0C0053600F214FF0FF30FFF790FF054B00228D
:100F1C009A60044B07221A60002318460837BD4616
:100F2C0080BD00BF10E000E080B582B000AF7860FB
:100F3C007868FFF749FF00BF0837BD4680BD80B514
:100F4C0086B000AF0346B9607A60FB7300237B6107
:100F5C00FFF75EFF78617A68B9687869FFF790FFF0
:100F6C00024697F90F3011461846FFF75FFF00BF96
:100F7C001837BD4680BD80B582B000AF7860786808
:100F8C00FFF7B0FF034618460837BD4680BD00008A
:100F9C0080B48BB000AF7860396000237B62002393
:100FAC003B6248E101227B6A02FA03F3FB613B6876
:100FBC001B68FA691340BB61BA69FB699A4240F03D
:100FCC0037813B685B68A34A93425ED0A14A934247
:100FDC0075D8A14A934258D09F4A93426FD89F4AE2
:100FEC00934252D09D4A934269D89D4A93424CD029
:100FFC009B4A934263D89B4A934246D0994A934268
:10100C005DD8122B2AD8122B59D801A252F823F0F2
:10101C00971000087110000883100008C510000814
:10102C00CB100008CB100008CB100008CB10000828
:10103C00CB100008CB100008CB100008CB10000818
:10104C00CB100008CB100008CB100008CB10000808
:10105C00CB100008791000088D100008824A9342CA
:10106C0013D02CE03B68DB683B6229E03B68DB6813
:10107C0004333B6224E03B68DB6808333B621FE0CF
:10108C003B68DB680C333B621AE03B689B68002BC7
:10109C0002D104233B6213E03B689B68012B05D112
:1010AC0008233B627B68FA691A6109E008233B62FA
:1010BC007B68FA695A6103E000233B6200E000BFE1
:1010CC00BB69FF2B01D87B6801E07B6804337B6133
:1010DC00BB69FF2B02D87B6A9B0002E07B6A083B52
:1010EC009B003B617B691A680F213B6901FA03F392
:1010FC00DB431A40396A3B6901FA03F31A437B69F3
:10110C001A603B685B6803F08053002B00F0908002
:10111C00564B9B69554A43F001039361534B9B69B2
:10112C0003F00103BB60BB68514A7B6A9B08023326
:10113C0052F82330FB607B6A03F003039B000F2201
:10114C0002FA03F3DB43FA681340FB607B68494AFD
:10115C0093420DD07B68484A934207D07B68474A3C
:10116C00934201D1022304E0032302E0012300E0B7
:10117C0000237A6A02F0030292009340FA68134348
:10118C00FB603B497B6A9B080233FA6841F82320D9
:10119C003B685B6803F48033002B06D0384B1A682D
:1011AC003749BB6913430B6006E0354B1A68BB69C2
:1011BC00DB43334913400B603B685B6803F400333B
:1011CC00002B06D02E4B5A682D49BB6913434B603C
:1011DC0006E02B4B5A68BB69DB43294913404B6033
:1011EC003B685B6803F48013002B06D0244B9A6891
:1011FC002349BB6913438B6006E0214B9A68BB699A
:10120C00DB431F4913408B603B685B6803F400139E
:10121C00002B06D01A4BDA681949BB691343CB6013
:10122C0006E0174BDA68BB69DB4315491340CB600A
:10123C007B6A01337B623B681A687B6A22FA03F390
:10124C00002B7FF4AFAE00BF00BF2C37BD4680BC77
:10125C00704700BF00003210000031100000221057
:10126C0000002110000012100000111000100240AC
:10127C000000014000080140000C0140001001403A
:10128C000004014080B483B000AF78600B467B80D3
:10129C0013467B707B78002B03D07A887B681A61AD
:1012AC0003E07B881A047B681A6100BF0C37BD46CB
:1012BC0080BC704780B586B000AF78607B68002B2F
:1012CC0001D101236CE27B681B6803F00103002B46
:1012DC0000F08780924B5B6803F00C03042B0CD05E
:1012EC008F4B5B6803F00C03082B12D18C4B5B68A3
:1012FC0003F48033B3F5803F0BD1894B1B6803F4A7
:10130C000033002B6CD07B685B68002B68D1012309
:10131C0046E27B685B68B3F5803F06D1804B1B6867
:10132C007F4A43F4803313602EE07B685B68002BAC
:10133C000CD17B4B1B687A4A23F480331360784BB7
:10134C001B68774A23F4802313601DE07B685B687D
:10135C00B3F5A02F0CD1724B1B68714A43F4802358
:10136C0013606F4B1B686E4A43F4803313600BE0C1
:10137C006B4B1B686A4A23F480331360684B1B6801
:10138C00674A23F4802313607B685B68002B13D0BF
:10139C00FFF7ECFC386108E0FFF7E8FC02463B691C
:1013AC00D31A642B01D90323FAE15D4B1B6803F4B8
:1013BC000033002BF0D014E0FFF7D8FC386108E0C4
:1013CC00FFF7D4FC02463B69D31A642B01D90323E3
:1013DC00E6E1534B1B6803F40033002BF0D100E023
:1013EC0000BF7B681B6803F00203002B63D04C4BDF
:1013FC005B6803F00C03002B0BD0494B5B6803F0CC
:10140C000C03082B1CD1464B5B6803F48033002B78
:10141C0016D1434B1B6803F00203002B05D07B68ED
:10142C001B69012B01D00123BAE13D4B1B6823F052
:10143C00F8027B685B69DB00394913430B603AE0C7
:10144C007B681B69002B20D0364B01221A60FFF7FA
:10145C008DFC386108E0FFF789FC02463B69D31A22
:10146C00022B01D903239BE12D4B1B6803F00203D4
:10147C00002BF0D02A4B1B6823F0F8027B685B69C9
:10148C00DB00274913430B6015E0264B00221A6042
:10149C00FFF76CFC386108E0FFF768FC02463B691B
:1014AC00D31A022B01D903237AE11D4B1B6803F0DD
:1014BC000203002BF0D17B681B6803F00803002BA0
:1014CC003AD07B689B69002B19D0174B01221A600C
:1014DC00FFF74CFC386108E0FFF748FC02463B691B
:1014EC00D31A022B01D903235AE10D4B5B6A03F08B
:1014FC000203002BF0D0012000F0A6FA1CE00A4BEE
:10150C0000221A60FFF732FC38610FE0FFF72EFC67
:10151C0002463B69D31A022B08D9032340E100BFD2
:10152C000010024000004242800442429E4B5B6A23
:10153C0003F00203002BE9D17B681B6803F0040362
:10154C00002B00F0A6800023FB75974BDB6903F0A2
:10155C008053002B0DD1944BDB69934A43F080539D
:10156C00D361914BDB6903F08053BB60BB680123F3
:10157C00FB758E4B1B6803F48073002B18D18B4BBF
:10158C001B688A4A43F480731360FFF7EFFB3861E2
:10159C0008E0FFF7EBFB02463B69D31A642B01D939
:1015AC000323FDE0814B1B6803F48073002BF0D008
:1015BC007B68DB68012B06D17B4B1B6A7A4A43F0B4
:1015CC00010313622DE07B68DB68002B0CD1764B9A
:1015DC001B6A754A23F001031362734B1B6A724A30
:1015EC0023F0040313621CE07B68DB68052B0CD131
:1015FC006D4B1B6A6C4A43F0040313626A4B1B6A03
:10160C00694A43F0010313620BE0674B1B6A664A9D
:10161C0023F001031362644B1B6A634A23F0040337
:10162C0013627B68DB68002B15D0FFF79FFB3861DA
:10163C000AE0FFF79BFB02463B69D31A41F2883262
:10164C00934201D90323ABE0574B1B6A03F002030F
:10165C00002BEED014E0FFF789FB38610AE0FFF7AE
:10166C0085FB02463B69D31A41F28832934201D979
:10167C00032395E04C4B1B6A03F00203002BEED1C5
:10168C00FB7D012B05D1484BDB69474A23F0805386
:10169C00D3617B68DB69002B00F08180424B5B6877
:1016AC0003F00C03082B61D07B68DB69022B46D15D
:1016BC003F4B00221A60FFF759FB386108E0FFF737
:1016CC0055FB02463B69D31A022B01D9032367E071
:1016DC00354B1B6803F00073002BF0D17B681B6A41
:1016EC00B3F5803F08D1304B5B6823F400327B6844
:1016FC009B682D4913434B602B4B5B6823F474128E
:10170C007B68196A7B685B6A0B43274913434B6000
:10171C00274B01221A60FFF729FB386108E0FFF71D
:10172C0025FB02463B69D31A022B01D9032337E070
:10173C001D4B1B6803F00073002BF0D02FE01C4BEB
:10174C0000221A60FFF712FB386108E0FFF70EFB6E
:10175C0002463B69D31A022B01D9032320E0124B1A
:10176C001B6803F00073002BF0D118E07B68DB6979
:10177C00012B01D1012313E00B4B5B68FB60FB6871
:10178C0003F480327B681B6A9A4206D1FB6803F42F
:10179C0070127B685B6A9A4201D0012300E000233F
:1017AC0018461837BD4680BD00100240007000403E
:1017BC006000424280B584B000AF786039607B68CD
:1017CC00002B01D10123D0E06A4B1B6803F0070307
:1017DC003A689A4210D9674B1B6823F00702654997
:1017EC003B6813430B60634B1B6803F007033A68B9
:1017FC009A4201D00123B8E07B681B6803F0020316
:10180C00002B20D07B681B6803F00403002B05D051
:10181C00594B5B68584A43F4E06353607B681B6820
:10182C0003F00803002B05D0534B5B68524A43F47A
:10183C0060535360504B5B6823F0F0027B689B68ED
:10184C004D4913434B607B681B6803F00103002B6D
:10185C0040D07B685B68012B07D1474B1B6803F4B6
:10186C000033002B15D101237FE07B685B68022BD2
:10187C0007D1414B1B6803F00073002B09D10123E6
:10188C0073E03D4B1B6803F00203002B01D10123D5
:10189C006BE0394B5B6823F003027B685B6836496D
:1018AC0013434B60FFF762FAF8600AE0FFF75EFA49
:1018BC000246FB68D31A41F28832934201D90323C2
:1018CC0053E02D4B5B6803F00C027B685B689B005C
:1018DC009A42EBD1274B1B6803F007033A689A42F4
:1018EC0010D2244B1B6823F0070222493B68134398
:1018FC000B60204B1B6803F007033A689A4201D037
:10190C00012332E07B681B6803F00403002B08D032
:10191C00194B5B6823F4E0627B68DB681649134360
:10192C004B607B681B6803F00803002B09D0124B3B
:10193C005B6823F460527B681B69DB000E49134320
:10194C004B6000F021F802460B4B5B681B0903F05F
:10195C000F030A49CB5C22FA03F3094A1360094BC3
:10196C001B681846FFF7C0F9002318461037BD4610
:10197C0080BD00BF0020024000100240101B000878
:10198C00000000200400002090B48AB000AF2A4B65
:10199C003C1D0FCB84E80F0040F201233B80002359
:1019AC00FB610023BB6100237B6200237B6100236E
:1019BC003B62224B5B68FB61FB6903F00C03042B5D
:1019CC0002D0082B03D02DE01D4B3B622DE0FB69B0
:1019DC009B0C03F00F0307F12802134413F8243C6B
:1019EC007B61FB6903F48033002B13D0134B5B68D2
:1019FC005B0C03F0010307F12802134413F8283C95
:101A0C00BB617B690E4A02FB03F2BB69B2FBF3F3C9
:101A1C007B6204E07B690B4A02FB03F37B627B6A0B
:101A2C003B6202E0064B3B6200BF3B6A184628371C
:101A3C00BD4690BC704700BF001B00080010024060
:101A4C0000127A0000093D0080B485B000AF7860C8
:101A5C000A4B1B680A4AA2FB03235B0A7A6802FB47
:101A6C0003F3FB6000BFFB685A1EFA60002BF9D130
:101A7C0000BF00BF1437BD4680BC7047000000207B
:101A8C00D34D621070B500260C4D0D4C641BA41088
:101A9C00A64209D100F022F800260A4D0A4C641B1C
:101AAC00A410A64205D170BD55F8043B98470136E9
:101ABC00EEE755F8043B98470136F2E7201B000887
:101ACC00201B0008201B0008241B000803460244AE
:101ADC00934200D1704703F8011BF9E7F8B500BF3A
:101AEC00F8BC08BC9E467047F8B500BFF8BC08BCF3
:041AFC009E4670474B
:101B000002030405060708090A0B0C0D0E0F10103E
:101B1000000000000000000001020304060708099D
:041B20003101000887
:041B24000D010008A7
:0C1B28000024F400100000000100000088
:0400000508000C7D66
:00000001FF
